{
  "contractName": "TokensTracker",
  "abi": [
    {
      "anonymous": false,
      "inputs": [
        {
          "indexed": false,
          "internalType": "address",
          "name": "_tokenAddress",
          "type": "address"
        }
      ],
      "name": "AddAddress",
      "type": "event"
    },
    {
      "inputs": [],
      "name": "getAddresses",
      "outputs": [
        {
          "internalType": "address[]",
          "name": "",
          "type": "address[]"
        }
      ],
      "stateMutability": "view",
      "type": "function",
      "constant": true
    },
    {
      "inputs": [
        {
          "internalType": "address",
          "name": "_tokenAddress",
          "type": "address"
        }
      ],
      "name": "addAddress",
      "outputs": [],
      "stateMutability": "nonpayable",
      "type": "function"
    }
  ],
  "bytecode": "0x608060405234801561001057600080fd5b50610370806100206000396000f3fe608060405234801561001057600080fd5b50600436106100365760003560e01c806338eada1c1461003b578063a39fac1214610057575b600080fd5b61005560048036038101906100509190610203565b610075565b005b61005f610112565b60405161006c91906102ee565b60405180910390f35b7ff479aa03776602139ad8a1cdaad9e683aa9a395b18958e3a69c05efb0fdb9df3816040516100a4919061031f565b60405180910390a16000819080600181540180825580915050600190039060005260206000200160009091909190916101000a81548173ffffffffffffffffffffffffffffffffffffffff021916908373ffffffffffffffffffffffffffffffffffffffff16021790555050565b6060600080548060200260200160405190810160405280929190818152602001828054801561019657602002820191906000526020600020905b8160009054906101000a900473ffffffffffffffffffffffffffffffffffffffff1673ffffffffffffffffffffffffffffffffffffffff168152602001906001019080831161014c575b5050505050905090565b600080fd5b600073ffffffffffffffffffffffffffffffffffffffff82169050919050565b60006101d0826101a5565b9050919050565b6101e0816101c5565b81146101eb57600080fd5b50565b6000813590506101fd816101d7565b92915050565b600060208284031215610219576102186101a0565b5b6000610227848285016101ee565b91505092915050565b600081519050919050565b600082825260208201905092915050565b6000819050602082019050919050565b610265816101c5565b82525050565b6000610277838361025c565b60208301905092915050565b6000602082019050919050565b600061029b82610230565b6102a5818561023b565b93506102b08361024c565b8060005b838110156102e15781516102c8888261026b565b97506102d383610283565b9250506001810190506102b4565b5085935050505092915050565b600060208201905081810360008301526103088184610290565b905092915050565b610319816101c5565b82525050565b60006020820190506103346000830184610310565b9291505056fea2646970667358221220b0bb7a44ecd9f3e083b487d9588f3055a8613c2cc9d16711b77323cc7c3a2c4664736f6c634300080a0033",
  "immutableReferences": {},
  "source": "// SPDX-License-Identifier: MIT\npragma solidity >=0.4.22 <0.9.0;\n\ncontract TokensTracker {\n    address[] tokens;\n    event AddAddress(address _tokenAddress);\n\n    function getAddresses() public view returns (address[] memory) {\n        return tokens;\n    }\n\n    function addAddress(address _tokenAddress) public {\n        emit AddAddress(_tokenAddress);\n        tokens.push(_tokenAddress);\n    }\n}\n",
  "sourcePath": "/Users/saurabhacademic/Desktop/Projects v2/token-tracker/contracts/TokensTracker.sol",
  "compiler": {
    "name": "solc",
    "version": "0.8.10+commit.fc410830.Emscripten.clang"
  },
  "schemaVersion": "3.4.4",
  "updatedAt": "2022-05-23T06:27:56.251Z",
  "networkType": "ethereum",
  "devdoc": {
    "kind": "dev",
    "methods": {},
    "version": 1
  },
  "userdoc": {
    "kind": "user",
    "methods": {},
    "version": 1
  }
}